S02000004156522D427574746F6E2D4465626F756E63652D44656D6F2E737265636E
S11300000C942A000C9447000C9447000C9447006D
S11300100C9447000C9447000C9447000C94470040
S11300200C9447000C9447000C9494000C944700E3
S11300300C9447000C9447000C9447000C94470020
S11300400C9447000C9447000C9447000C94470010
S11300500C94470011241FBECFE5D8E0DEBFCDBF0E
S113006010E0A0E6B0E0E4E7F1E002C005900D92F4
S1130070A236B107D9F720E0A2E6B0E001C01D9294
S1130080AD36B207E1F70E9473000C94B8000C94EB
S11300900000E09160000E2E000CFF0B89B3EE59B6
S11300A0FF4F808380916000815080936000809135
S11300B0600088231CF489E080936000089529E09F
S11300C030E040E08FEFF901EE59FF4F9081892332
S11300D0492B21503109B8F790916C00892B842366
S11300E080936C00089583B78F7B83BF83B7886048
S11300F083BF8CE78CBF83B78B7F83BF83B7836059
S113010083BF89B7826089BF8AB381708ABB8BB38E
S113011081708BBBD19A78940E945F0080FF02C0EB
S1130120D99AFACFD998F8CF1F920F920FB60F929F
S113013011242F933F934F935F936F937F938F93E8
S11301409F93AF93BF93EF93FF930E944900FF9156
S1130150EF91BF91AF919F918F917F916F915F913B
S11301604F913F912F910F900FBE0F901F901895B4
S1070170F894FFCF2D
S105017409007C
S9030000FC
